{
  "_format": "hh-sol-artifact-1",
  "contractName": "DreWToken",
  "sourceName": "contracts/Contracts.sol",
  "abi": [
    {
      "inputs": [],
      "stateMutability": "nonpayable",
      "type": "constructor"
    },
    {
      "anonymous": false,
      "inputs": [
        {
          "indexed": true,
          "internalType": "address",
          "name": "owner",
          "type": "address"
        },
        {
          "indexed": true,
          "internalType": "address",
          "name": "spender",
          "type": "address"
        },
        {
          "indexed": false,
          "internalType": "uint256",
          "name": "value",
          "type": "uint256"
        }
      ],
      "name": "Approval",
      "type": "event"
    },
    {
      "anonymous": false,
      "inputs": [
        {
          "indexed": true,
          "internalType": "address",
          "name": "previousOwner",
          "type": "address"
        },
        {
          "indexed": true,
          "internalType": "address",
          "name": "newOwner",
          "type": "address"
        }
      ],
      "name": "OwnershipTransferred",
      "type": "event"
    },
    {
      "anonymous": false,
      "inputs": [
        {
          "indexed": true,
          "internalType": "address",
          "name": "from",
          "type": "address"
        },
        {
          "indexed": true,
          "internalType": "address",
          "name": "to",
          "type": "address"
        },
        {
          "indexed": false,
          "internalType": "uint256",
          "name": "value",
          "type": "uint256"
        }
      ],
      "name": "Transfer",
      "type": "event"
    },
    {
      "inputs": [
        {
          "internalType": "string",
          "name": "_name",
          "type": "string"
        },
        {
          "internalType": "address",
          "name": "_adminAddress",
          "type": "address"
        }
      ],
      "name": "addAdmin",
      "outputs": [],
      "stateMutability": "nonpayable",
      "type": "function"
    },
    {
      "inputs": [
        {
          "internalType": "string",
          "name": "_name",
          "type": "string"
        },
        {
          "internalType": "address",
          "name": "_retailerAddress",
          "type": "address"
        }
      ],
      "name": "addRetailer",
      "outputs": [],
      "stateMutability": "nonpayable",
      "type": "function"
    },
    {
      "inputs": [
        {
          "internalType": "address",
          "name": "owner",
          "type": "address"
        },
        {
          "internalType": "address",
          "name": "spender",
          "type": "address"
        }
      ],
      "name": "allowance",
      "outputs": [
        {
          "internalType": "uint256",
          "name": "",
          "type": "uint256"
        }
      ],
      "stateMutability": "view",
      "type": "function"
    },
    {
      "inputs": [
        {
          "internalType": "address",
          "name": "spender",
          "type": "address"
        },
        {
          "internalType": "uint256",
          "name": "amount",
          "type": "uint256"
        }
      ],
      "name": "approve",
      "outputs": [
        {
          "internalType": "bool",
          "name": "",
          "type": "bool"
        }
      ],
      "stateMutability": "nonpayable",
      "type": "function"
    },
    {
      "inputs": [
        {
          "internalType": "address",
          "name": "account",
          "type": "address"
        }
      ],
      "name": "balanceOf",
      "outputs": [
        {
          "internalType": "uint256",
          "name": "",
          "type": "uint256"
        }
      ],
      "stateMutability": "view",
      "type": "function"
    },
    {
      "inputs": [
        {
          "internalType": "uint256",
          "name": "amount",
          "type": "uint256"
        }
      ],
      "name": "burn",
      "outputs": [],
      "stateMutability": "nonpayable",
      "type": "function"
    },
    {
      "inputs": [
        {
          "internalType": "address",
          "name": "account",
          "type": "address"
        },
        {
          "internalType": "uint256",
          "name": "amount",
          "type": "uint256"
        }
      ],
      "name": "burnFrom",
      "outputs": [],
      "stateMutability": "nonpayable",
      "type": "function"
    },
    {
      "inputs": [],
      "name": "decimals",
      "outputs": [
        {
          "internalType": "uint8",
          "name": "",
          "type": "uint8"
        }
      ],
      "stateMutability": "view",
      "type": "function"
    },
    {
      "inputs": [
        {
          "internalType": "address",
          "name": "spender",
          "type": "address"
        },
        {
          "internalType": "uint256",
          "name": "subtractedValue",
          "type": "uint256"
        }
      ],
      "name": "decreaseAllowance",
      "outputs": [
        {
          "internalType": "bool",
          "name": "",
          "type": "bool"
        }
      ],
      "stateMutability": "nonpayable",
      "type": "function"
    },
    {
      "inputs": [
        {
          "internalType": "address",
          "name": "spender",
          "type": "address"
        },
        {
          "internalType": "uint256",
          "name": "addedValue",
          "type": "uint256"
        }
      ],
      "name": "increaseAllowance",
      "outputs": [
        {
          "internalType": "bool",
          "name": "",
          "type": "bool"
        }
      ],
      "stateMutability": "nonpayable",
      "type": "function"
    },
    {
      "inputs": [
        {
          "internalType": "uint256",
          "name": "amount",
          "type": "uint256"
        }
      ],
      "name": "mint",
      "outputs": [],
      "stateMutability": "nonpayable",
      "type": "function"
    },
    {
      "inputs": [],
      "name": "name",
      "outputs": [
        {
          "internalType": "string",
          "name": "",
          "type": "string"
        }
      ],
      "stateMutability": "view",
      "type": "function"
    },
    {
      "inputs": [],
      "name": "owner",
      "outputs": [
        {
          "internalType": "address",
          "name": "",
          "type": "address"
        }
      ],
      "stateMutability": "view",
      "type": "function"
    },
    {
      "inputs": [],
      "name": "renounceOwnership",
      "outputs": [],
      "stateMutability": "nonpayable",
      "type": "function"
    },
    {
      "inputs": [],
      "name": "symbol",
      "outputs": [
        {
          "internalType": "string",
          "name": "",
          "type": "string"
        }
      ],
      "stateMutability": "view",
      "type": "function"
    },
    {
      "inputs": [],
      "name": "totalSupply",
      "outputs": [
        {
          "internalType": "uint256",
          "name": "",
          "type": "uint256"
        }
      ],
      "stateMutability": "view",
      "type": "function"
    },
    {
      "inputs": [
        {
          "internalType": "address",
          "name": "to",
          "type": "address"
        },
        {
          "internalType": "uint256",
          "name": "amount",
          "type": "uint256"
        }
      ],
      "name": "transfer",
      "outputs": [
        {
          "internalType": "bool",
          "name": "",
          "type": "bool"
        }
      ],
      "stateMutability": "nonpayable",
      "type": "function"
    },
    {
      "inputs": [
        {
          "internalType": "address",
          "name": "from",
          "type": "address"
        },
        {
          "internalType": "address",
          "name": "to",
          "type": "address"
        },
        {
          "internalType": "uint256",
          "name": "amount",
          "type": "uint256"
        }
      ],
      "name": "transferFrom",
      "outputs": [
        {
          "internalType": "bool",
          "name": "",
          "type": "bool"
        }
      ],
      "stateMutability": "nonpayable",
      "type": "function"
    },
    {
      "inputs": [
        {
          "internalType": "address",
          "name": "newOwner",
          "type": "address"
        }
      ],
      "name": "transferOwnership",
      "outputs": [],
      "stateMutability": "nonpayable",
      "type": "function"
    }
  ],
  "bytecode": "0x60806040523480156200001157600080fd5b506040518060400160405280600981526020017f44726557546f6b656e00000000000000000000000000000000000000000000008152506040518060400160405280600381526020017f44544b000000000000000000000000000000000000000000000000000000000081525081600390816200008f919062000519565b508060049081620000a1919062000519565b505050620000c4620000b8620001d160201b60201c565b620001d960201b60201c565b600060405180604001604052806040518060400160405280600581526020017f4f574e455200000000000000000000000000000000000000000000000000000081525081526020013373ffffffffffffffffffffffffffffffffffffffff16815250905080600660003373ffffffffffffffffffffffffffffffffffffffff1673ffffffffffffffffffffffffffffffffffffffff16815260200190815260200160002060008201518160000190816200017f919062000519565b5060208201518160010160006101000a81548173ffffffffffffffffffffffffffffffffffffffff021916908373ffffffffffffffffffffffffffffffffffffffff1602179055509050505062000600565b600033905090565b6000600560009054906101000a900473ffffffffffffffffffffffffffffffffffffffff16905081600560006101000a81548173ffffffffffffffffffffffffffffffffffffffff021916908373ffffffffffffffffffffffffffffffffffffffff1602179055508173ffffffffffffffffffffffffffffffffffffffff168173ffffffffffffffffffffffffffffffffffffffff167f8be0079c531659141344cd1fd0a4f28419497f9722a3daafe3b4186f6b6457e060405160405180910390a35050565b600081519050919050565b7f4e487b7100000000000000000000000000000000000000000000000000000000600052604160045260246000fd5b7f4e487b7100000000000000000000000000000000000000000000000000000000600052602260045260246000fd5b600060028204905060018216806200032157607f821691505b602082108103620003375762000336620002d9565b5b50919050565b60008190508160005260206000209050919050565b60006020601f8301049050919050565b600082821b905092915050565b600060088302620003a17fffffffffffffffffffffffffffffffffffffffffffffffffffffffffffffffff8262000362565b620003ad868362000362565b95508019841693508086168417925050509392505050565b6000819050919050565b6000819050919050565b6000620003fa620003f4620003ee84620003c5565b620003cf565b620003c5565b9050919050565b6000819050919050565b6200041683620003d9565b6200042e620004258262000401565b8484546200036f565b825550505050565b600090565b6200044562000436565b620004528184846200040b565b505050565b5b818110156200047a576200046e6000826200043b565b60018101905062000458565b5050565b601f821115620004c95762000493816200033d565b6200049e8462000352565b81016020851015620004ae578190505b620004c6620004bd8562000352565b83018262000457565b50505b505050565b600082821c905092915050565b6000620004ee60001984600802620004ce565b1980831691505092915050565b6000620005098383620004db565b9150826002028217905092915050565b62000524826200029f565b67ffffffffffffffff81111562000540576200053f620002aa565b5b6200054c825462000308565b620005598282856200047e565b600060209050601f8311600181146200059157600084156200057c578287015190505b620005888582620004fb565b865550620005f8565b601f198416620005a1866200033d565b60005b82811015620005cb57848901518255600182019150602085019450602081019050620005a4565b86831015620005eb5784890151620005e7601f891682620004db565b8355505b6001600288020188555050505b505050505050565b611e7380620006106000396000f3fe608060405234801561001057600080fd5b50600436106101215760003560e01c806370a08231116100ad578063a0712d6811610071578063a0712d68146102f6578063a457c2d714610312578063a9059cbb14610342578063dd62ed3e14610372578063f2fde38b146103a257610121565b806370a0823114610264578063715018a61461029457806379cc67901461029e5780638da5cb5b146102ba57806395d89b41146102d857610121565b806323b872dd116100f457806323b872dd146101ae578063313ce567146101de57806339509351146101fc5780633dacf3631461022c57806342966c681461024857610121565b806306fdde03146101265780630831b05f14610144578063095ea7b31461016057806318160ddd14610190575b600080fd5b61012e6103be565b60405161013b9190611241565b60405180910390f35b61015e6004803603810190610159919061140a565b610450565b005b61017a6004803603810190610175919061149c565b61053e565b60405161018791906114f7565b60405180910390f35b61019861057b565b6040516101a59190611521565b60405180910390f35b6101c860048036038101906101c3919061153c565b610585565b6040516101d591906114f7565b60405180910390f35b6101e66105c2565b6040516101f391906115ab565b60405180910390f35b6102166004803603810190610211919061149c565b6105c7565b60405161022391906114f7565b60405180910390f35b6102466004803603810190610241919061140a565b610604565b005b610262600480360381019061025d91906115c6565b6106f2565b005b61027e600480360381019061027991906115f3565b610707565b60405161028b9190611521565b60405180910390f35b61029c61074f565b005b6102b860048036038101906102b3919061149c565b610792565b005b6102c26107cd565b6040516102cf919061162f565b60405180910390f35b6102e06107f7565b6040516102ed9190611241565b60405180910390f35b610310600480360381019061030b91906115c6565b610889565b005b61032c6004803603810190610327919061149c565b61089e565b60405161033991906114f7565b60405180910390f35b61035c6004803603810190610357919061149c565b6108db565b60405161036991906114f7565b60405180910390f35b61038c6004803603810190610387919061164a565b610918565b6040516103999190611521565b60405180910390f35b6103bc60048036038101906103b791906115f3565b610955565b005b6060600380546103cd906116b9565b80601f01602080910402602001604051908101604052809291908181526020018280546103f9906116b9565b80156104465780601f1061041b57610100808354040283529160200191610446565b820191906000526020600020905b81548152906001019060200180831161042957829003601f168201915b5050505050905090565b6104586109d8565b61046181610aab565b61046a81610b7f565b600060405180604001604052808481526020018373ffffffffffffffffffffffffffffffffffffffff16815250905080600660008473ffffffffffffffffffffffffffffffffffffffff1673ffffffffffffffffffffffffffffffffffffffff16815260200190815260200160002060008201518160000190816104ee9190611896565b5060208201518160010160006101000a81548173ffffffffffffffffffffffffffffffffffffffff021916908373ffffffffffffffffffffffffffffffffffffffff160217905550905050505050565b60006040517f08c379a0000000000000000000000000000000000000000000000000000000008152600401610572906119b4565b60405180910390fd5b6000600254905090565b60006040517f08c379a00000000000000000000000000000000000000000000000000000000081526004016105b9906119b4565b60405180910390fd5b600090565b60006040517f08c379a00000000000000000000000000000000000000000000000000000000081526004016105fb906119b4565b60405180910390fd5b61060c6109d8565b61061581610aab565b61061e81610b7f565b600060405180604001604052808481526020018373ffffffffffffffffffffffffffffffffffffffff16815250905080600760008473ffffffffffffffffffffffffffffffffffffffff1673ffffffffffffffffffffffffffffffffffffffff16815260200190815260200160002060008201518160000190816106a29190611896565b5060208201518160010160006101000a81548173ffffffffffffffffffffffffffffffffffffffff021916908373ffffffffffffffffffffffffffffffffffffffff160217905550905050505050565b6106fa610c53565b6107043382610d26565b50565b60008060008373ffffffffffffffffffffffffffffffffffffffff1673ffffffffffffffffffffffffffffffffffffffff168152602001908152602001600020549050919050565b610757610efc565b6040517f08c379a0000000000000000000000000000000000000000000000000000000008152600401610789906119b4565b60405180910390fd5b6040517f08c379a00000000000000000000000000000000000000000000000000000000081526004016107c4906119b4565b60405180910390fd5b6000600560009054906101000a900473ffffffffffffffffffffffffffffffffffffffff16905090565b606060048054610806906116b9565b80601f0160208091040260200160405190810160405280929190818152602001828054610832906116b9565b801561087f5780601f106108545761010080835404028352916020019161087f565b820191906000526020600020905b81548152906001019060200180831161086257829003601f168201915b5050505050905090565b610891610c53565b61089b3382610f7a565b50565b60006040517f08c379a00000000000000000000000000000000000000000000000000000000081526004016108d2906119b4565b60405180910390fd5b60006040517f08c379a000000000000000000000000000000000000000000000000000000000815260040161090f906119b4565b60405180910390fd5b60006040517f08c379a000000000000000000000000000000000000000000000000000000000815260040161094c906119b4565b60405180910390fd5b61095d610efc565b600073ffffffffffffffffffffffffffffffffffffffff168173ffffffffffffffffffffffffffffffffffffffff16036109cc576040517f08c379a00000000000000000000000000000000000000000000000000000000081526004016109c390611a46565b60405180910390fd5b6109d5816110d9565b50565b600073ffffffffffffffffffffffffffffffffffffffff16600660003373ffffffffffffffffffffffffffffffffffffffff1673ffffffffffffffffffffffffffffffffffffffff16815260200190815260200160002060010160009054906101000a900473ffffffffffffffffffffffffffffffffffffffff1673ffffffffffffffffffffffffffffffffffffffff1603610aa9576040517f08c379a0000000000000000000000000000000000000000000000000000000008152600401610aa090611ab2565b60405180910390fd5b565b600073ffffffffffffffffffffffffffffffffffffffff16600660008373ffffffffffffffffffffffffffffffffffffffff1673ffffffffffffffffffffffffffffffffffffffff16815260200190815260200160002060010160009054906101000a900473ffffffffffffffffffffffffffffffffffffffff1673ffffffffffffffffffffffffffffffffffffffff1614610b7c576040517f08c379a0000000000000000000000000000000000000000000000000000000008152600401610b7390611b1e565b60405180910390fd5b50565b600073ffffffffffffffffffffffffffffffffffffffff16600760008373ffffffffffffffffffffffffffffffffffffffff1673ffffffffffffffffffffffffffffffffffffffff16815260200190815260200160002060010160009054906101000a900473ffffffffffffffffffffffffffffffffffffffff1673ffffffffffffffffffffffffffffffffffffffff1614610c50576040517f08c379a0000000000000000000000000000000000000000000000000000000008152600401610c4790611b8a565b60405180910390fd5b50565b600073ffffffffffffffffffffffffffffffffffffffff16600760003373ffffffffffffffffffffffffffffffffffffffff1673ffffffffffffffffffffffffffffffffffffffff16815260200190815260200160002060010160009054906101000a900473ffffffffffffffffffffffffffffffffffffffff1673ffffffffffffffffffffffffffffffffffffffff1603610d24576040517f08c379a0000000000000000000000000000000000000000000000000000000008152600401610d1b90611ab2565b60405180910390fd5b565b600073ffffffffffffffffffffffffffffffffffffffff168273ffffffffffffffffffffffffffffffffffffffff1603610d95576040517f08c379a0000000000000000000000000000000000000000000000000000000008152600401610d8c90611c1c565b60405180910390fd5b610da18260008361119f565b60008060008473ffffffffffffffffffffffffffffffffffffffff1673ffffffffffffffffffffffffffffffffffffffff16815260200190815260200160002054905081811015610e27576040517f08c379a0000000000000000000000000000000000000000000000000000000008152600401610e1e90611cae565b60405180910390fd5b8181036000808573ffffffffffffffffffffffffffffffffffffffff1673ffffffffffffffffffffffffffffffffffffffff168152602001908152602001600020819055508160026000828254610e7e9190611cfd565b92505081905550600073ffffffffffffffffffffffffffffffffffffffff168373ffffffffffffffffffffffffffffffffffffffff167fddf252ad1be2c89b69c2b068fc378daa952ba7f163c4a11628f55a4df523b3ef84604051610ee39190611521565b60405180910390a3610ef7836000846111a4565b505050565b610f046111a9565b73ffffffffffffffffffffffffffffffffffffffff16610f226107cd565b73ffffffffffffffffffffffffffffffffffffffff1614610f78576040517f08c379a0000000000000000000000000000000000000000000000000000000008152600401610f6f90611d7d565b60405180910390fd5b565b600073ffffffffffffffffffffffffffffffffffffffff168273ffffffffffffffffffffffffffffffffffffffff1603610fe9576040517f08c379a0000000000000000000000000000000000000000000000000000000008152600401610fe090611de9565b60405180910390fd5b610ff56000838361119f565b80600260008282546110079190611e09565b92505081905550806000808473ffffffffffffffffffffffffffffffffffffffff1673ffffffffffffffffffffffffffffffffffffffff168152602001908152602001600020600082825461105c9190611e09565b925050819055508173ffffffffffffffffffffffffffffffffffffffff16600073ffffffffffffffffffffffffffffffffffffffff167fddf252ad1be2c89b69c2b068fc378daa952ba7f163c4a11628f55a4df523b3ef836040516110c19190611521565b60405180910390a36110d5600083836111a4565b5050565b6000600560009054906101000a900473ffffffffffffffffffffffffffffffffffffffff16905081600560006101000a81548173ffffffffffffffffffffffffffffffffffffffff021916908373ffffffffffffffffffffffffffffffffffffffff1602179055508173ffffffffffffffffffffffffffffffffffffffff168173ffffffffffffffffffffffffffffffffffffffff167f8be0079c531659141344cd1fd0a4f28419497f9722a3daafe3b4186f6b6457e060405160405180910390a35050565b505050565b505050565b600033905090565b600081519050919050565b600082825260208201905092915050565b60005b838110156111eb5780820151818401526020810190506111d0565b60008484015250505050565b6000601f19601f8301169050919050565b6000611213826111b1565b61121d81856111bc565b935061122d8185602086016111cd565b611236816111f7565b840191505092915050565b6000602082019050818103600083015261125b8184611208565b905092915050565b6000604051905090565b600080fd5b600080fd5b600080fd5b600080fd5b7f4e487b7100000000000000000000000000000000000000000000000000000000600052604160045260246000fd5b6112b9826111f7565b810181811067ffffffffffffffff821117156112d8576112d7611281565b5b80604052505050565b60006112eb611263565b90506112f782826112b0565b919050565b600067ffffffffffffffff82111561131757611316611281565b5b611320826111f7565b9050602081019050919050565b82818337600083830152505050565b600061134f61134a846112fc565b6112e1565b90508281526020810184848401111561136b5761136a61127c565b5b61137684828561132d565b509392505050565b600082601f83011261139357611392611277565b5b81356113a384826020860161133c565b91505092915050565b600073ffffffffffffffffffffffffffffffffffffffff82169050919050565b60006113d7826113ac565b9050919050565b6113e7816113cc565b81146113f257600080fd5b50565b600081359050611404816113de565b92915050565b600080604083850312156114215761142061126d565b5b600083013567ffffffffffffffff81111561143f5761143e611272565b5b61144b8582860161137e565b925050602061145c858286016113f5565b9150509250929050565b6000819050919050565b61147981611466565b811461148457600080fd5b50565b60008135905061149681611470565b92915050565b600080604083850312156114b3576114b261126d565b5b60006114c1858286016113f5565b92505060206114d285828601611487565b9150509250929050565b60008115159050919050565b6114f1816114dc565b82525050565b600060208201905061150c60008301846114e8565b92915050565b61151b81611466565b82525050565b60006020820190506115366000830184611512565b92915050565b6000806000606084860312156115555761155461126d565b5b6000611563868287016113f5565b9350506020611574868287016113f5565b925050604061158586828701611487565b9150509250925092565b600060ff82169050919050565b6115a58161158f565b82525050565b60006020820190506115c0600083018461159c565b92915050565b6000602082840312156115dc576115db61126d565b5b60006115ea84828501611487565b91505092915050565b6000602082840312156116095761160861126d565b5b6000611617848285016113f5565b91505092915050565b611629816113cc565b82525050565b60006020820190506116446000830184611620565b92915050565b600080604083850312156116615761166061126d565b5b600061166f858286016113f5565b9250506020611680858286016113f5565b9150509250929050565b7f4e487b7100000000000000000000000000000000000000000000000000000000600052602260045260246000fd5b600060028204905060018216806116d157607f821691505b6020821081036116e4576116e361168a565b5b50919050565b60008190508160005260206000209050919050565b60006020601f8301049050919050565b600082821b905092915050565b60006008830261174c7fffffffffffffffffffffffffffffffffffffffffffffffffffffffffffffffff8261170f565b611756868361170f565b95508019841693508086168417925050509392505050565b6000819050919050565b600061179361178e61178984611466565b61176e565b611466565b9050919050565b6000819050919050565b6117ad83611778565b6117c16117b98261179a565b84845461171c565b825550505050565b600090565b6117d66117c9565b6117e18184846117a4565b505050565b5b81811015611805576117fa6000826117ce565b6001810190506117e7565b5050565b601f82111561184a5761181b816116ea565b611824846116ff565b81016020851015611833578190505b61184761183f856116ff565b8301826117e6565b50505b505050565b600082821c905092915050565b600061186d6000198460080261184f565b1980831691505092915050565b6000611886838361185c565b9150826002028217905092915050565b61189f826111b1565b67ffffffffffffffff8111156118b8576118b7611281565b5b6118c282546116b9565b6118cd828285611809565b600060209050601f83116001811461190057600084156118ee578287015190505b6118f8858261187a565b865550611960565b601f19841661190e866116ea565b60005b8281101561193657848901518255600182019150602085019450602081019050611911565b86831015611953578489015161194f601f89168261185c565b8355505b6001600288020188555050505b505050505050565b7f4163636573732044656e69656420210000000000000000000000000000000000600082015250565b600061199e600f836111bc565b91506119a982611968565b602082019050919050565b600060208201905081810360008301526119cd81611991565b9050919050565b7f4f776e61626c653a206e6577206f776e657220697320746865207a65726f206160008201527f6464726573730000000000000000000000000000000000000000000000000000602082015250565b6000611a306026836111bc565b9150611a3b826119d4565b604082019050919050565b60006020820190508181036000830152611a5f81611a23565b9050919050565b7f4163636573732044656e69656400000000000000000000000000000000000000600082015250565b6000611a9c600d836111bc565b9150611aa782611a66565b602082019050919050565b60006020820190508181036000830152611acb81611a8f565b9050919050565b7f5573657220416c72656164792041646d696e0000000000000000000000000000600082015250565b6000611b086012836111bc565b9150611b1382611ad2565b602082019050919050565b60006020820190508181036000830152611b3781611afb565b9050919050565b7f416c726561647920526567697374657265640000000000000000000000000000600082015250565b6000611b746012836111bc565b9150611b7f82611b3e565b602082019050919050565b60006020820190508181036000830152611ba381611b67565b9050919050565b7f45524332303a206275726e2066726f6d20746865207a65726f2061646472657360008201527f7300000000000000000000000000000000000000000000000000000000000000602082015250565b6000611c066021836111bc565b9150611c1182611baa565b604082019050919050565b60006020820190508181036000830152611c3581611bf9565b9050919050565b7f45524332303a206275726e20616d6f756e7420657863656564732062616c616e60008201527f6365000000000000000000000000000000000000000000000000000000000000602082015250565b6000611c986022836111bc565b9150611ca382611c3c565b604082019050919050565b60006020820190508181036000830152611cc781611c8b565b9050919050565b7f4e487b7100000000000000000000000000000000000000000000000000000000600052601160045260246000fd5b6000611d0882611466565b9150611d1383611466565b9250828203905081811115611d2b57611d2a611cce565b5b92915050565b7f4f776e61626c653a2063616c6c6572206973206e6f7420746865206f776e6572600082015250565b6000611d676020836111bc565b9150611d7282611d31565b602082019050919050565b60006020820190508181036000830152611d9681611d5a565b9050919050565b7f45524332303a206d696e7420746f20746865207a65726f206164647265737300600082015250565b6000611dd3601f836111bc565b9150611dde82611d9d565b602082019050919050565b60006020820190508181036000830152611e0281611dc6565b9050919050565b6000611e1482611466565b9150611e1f83611466565b9250828201905080821115611e3757611e36611cce565b5b9291505056fea2646970667358221220bddfbcf5cb0515d4ce98c4d0d84a4e2a98f6a64c74a2ae73993961f4c6a1e70464736f6c63430008100033",
  "linkReferences": {},
  "deployedLinkReferences": {}
}