{
  "_format": "hh-sol-artifact-1",
  "contractName": "DreWMartToken",
  "sourceName": "contracts/Contracts.sol",
  "abi": [
    {
      "inputs": [],
      "stateMutability": "nonpayable",
      "type": "constructor"
    },
    {
      "anonymous": false,
      "inputs": [
        {
          "indexed": true,
          "internalType": "address",
          "name": "owner",
          "type": "address"
        },
        {
          "indexed": true,
          "internalType": "address",
          "name": "approved",
          "type": "address"
        },
        {
          "indexed": true,
          "internalType": "uint256",
          "name": "tokenId",
          "type": "uint256"
        }
      ],
      "name": "Approval",
      "type": "event"
    },
    {
      "anonymous": false,
      "inputs": [
        {
          "indexed": true,
          "internalType": "address",
          "name": "owner",
          "type": "address"
        },
        {
          "indexed": true,
          "internalType": "address",
          "name": "operator",
          "type": "address"
        },
        {
          "indexed": false,
          "internalType": "bool",
          "name": "approved",
          "type": "bool"
        }
      ],
      "name": "ApprovalForAll",
      "type": "event"
    },
    {
      "anonymous": false,
      "inputs": [
        {
          "indexed": true,
          "internalType": "address",
          "name": "previousOwner",
          "type": "address"
        },
        {
          "indexed": true,
          "internalType": "address",
          "name": "newOwner",
          "type": "address"
        }
      ],
      "name": "OwnershipTransferred",
      "type": "event"
    },
    {
      "anonymous": false,
      "inputs": [
        {
          "indexed": true,
          "internalType": "address",
          "name": "from",
          "type": "address"
        },
        {
          "indexed": true,
          "internalType": "address",
          "name": "to",
          "type": "address"
        },
        {
          "indexed": true,
          "internalType": "uint256",
          "name": "tokenId",
          "type": "uint256"
        }
      ],
      "name": "Transfer",
      "type": "event"
    },
    {
      "inputs": [
        {
          "internalType": "string",
          "name": "_name",
          "type": "string"
        }
      ],
      "name": "addUser",
      "outputs": [],
      "stateMutability": "nonpayable",
      "type": "function"
    },
    {
      "inputs": [
        {
          "internalType": "address",
          "name": "to",
          "type": "address"
        },
        {
          "internalType": "uint256",
          "name": "tokenId",
          "type": "uint256"
        }
      ],
      "name": "approve",
      "outputs": [],
      "stateMutability": "nonpayable",
      "type": "function"
    },
    {
      "inputs": [
        {
          "internalType": "address",
          "name": "owner",
          "type": "address"
        }
      ],
      "name": "balanceOf",
      "outputs": [
        {
          "internalType": "uint256",
          "name": "",
          "type": "uint256"
        }
      ],
      "stateMutability": "view",
      "type": "function"
    },
    {
      "inputs": [
        {
          "internalType": "uint256",
          "name": "tokenId",
          "type": "uint256"
        }
      ],
      "name": "burn",
      "outputs": [],
      "stateMutability": "nonpayable",
      "type": "function"
    },
    {
      "inputs": [],
      "name": "burnAllTokens",
      "outputs": [],
      "stateMutability": "nonpayable",
      "type": "function"
    },
    {
      "inputs": [
        {
          "internalType": "uint256",
          "name": "tokenId",
          "type": "uint256"
        }
      ],
      "name": "getApproved",
      "outputs": [
        {
          "internalType": "address",
          "name": "",
          "type": "address"
        }
      ],
      "stateMutability": "view",
      "type": "function"
    },
    {
      "inputs": [
        {
          "internalType": "address",
          "name": "owner",
          "type": "address"
        },
        {
          "internalType": "address",
          "name": "operator",
          "type": "address"
        }
      ],
      "name": "isApprovedForAll",
      "outputs": [
        {
          "internalType": "bool",
          "name": "",
          "type": "bool"
        }
      ],
      "stateMutability": "view",
      "type": "function"
    },
    {
      "inputs": [],
      "name": "name",
      "outputs": [
        {
          "internalType": "string",
          "name": "",
          "type": "string"
        }
      ],
      "stateMutability": "view",
      "type": "function"
    },
    {
      "inputs": [],
      "name": "owner",
      "outputs": [
        {
          "internalType": "address",
          "name": "",
          "type": "address"
        }
      ],
      "stateMutability": "view",
      "type": "function"
    },
    {
      "inputs": [
        {
          "internalType": "uint256",
          "name": "tokenId",
          "type": "uint256"
        }
      ],
      "name": "ownerOf",
      "outputs": [
        {
          "internalType": "address",
          "name": "",
          "type": "address"
        }
      ],
      "stateMutability": "view",
      "type": "function"
    },
    {
      "inputs": [
        {
          "internalType": "uint256",
          "name": "",
          "type": "uint256"
        }
      ],
      "name": "registeredWarranty",
      "outputs": [
        {
          "internalType": "string",
          "name": "productID",
          "type": "string"
        },
        {
          "internalType": "string",
          "name": "productName",
          "type": "string"
        },
        {
          "internalType": "uint256",
          "name": "createdAt",
          "type": "uint256"
        },
        {
          "internalType": "uint256",
          "name": "expiryAt",
          "type": "uint256"
        }
      ],
      "stateMutability": "view",
      "type": "function"
    },
    {
      "inputs": [],
      "name": "renounceOwnership",
      "outputs": [],
      "stateMutability": "nonpayable",
      "type": "function"
    },
    {
      "inputs": [
        {
          "internalType": "string",
          "name": "_productID",
          "type": "string"
        },
        {
          "internalType": "string",
          "name": "_productName",
          "type": "string"
        },
        {
          "internalType": "uint256",
          "name": "_createdAt",
          "type": "uint256"
        },
        {
          "internalType": "uint256",
          "name": "_expiryAt",
          "type": "uint256"
        }
      ],
      "name": "safeMint",
      "outputs": [],
      "stateMutability": "nonpayable",
      "type": "function"
    },
    {
      "inputs": [
        {
          "internalType": "address",
          "name": "from",
          "type": "address"
        },
        {
          "internalType": "address",
          "name": "to",
          "type": "address"
        },
        {
          "internalType": "uint256",
          "name": "tokenId",
          "type": "uint256"
        }
      ],
      "name": "safeTransferFrom",
      "outputs": [],
      "stateMutability": "nonpayable",
      "type": "function"
    },
    {
      "inputs": [
        {
          "internalType": "address",
          "name": "from",
          "type": "address"
        },
        {
          "internalType": "address",
          "name": "to",
          "type": "address"
        },
        {
          "internalType": "uint256",
          "name": "tokenId",
          "type": "uint256"
        },
        {
          "internalType": "bytes",
          "name": "data",
          "type": "bytes"
        }
      ],
      "name": "safeTransferFrom",
      "outputs": [],
      "stateMutability": "nonpayable",
      "type": "function"
    },
    {
      "inputs": [
        {
          "internalType": "address",
          "name": "operator",
          "type": "address"
        },
        {
          "internalType": "bool",
          "name": "approved",
          "type": "bool"
        }
      ],
      "name": "setApprovalForAll",
      "outputs": [],
      "stateMutability": "nonpayable",
      "type": "function"
    },
    {
      "inputs": [
        {
          "internalType": "bytes4",
          "name": "interfaceId",
          "type": "bytes4"
        }
      ],
      "name": "supportsInterface",
      "outputs": [
        {
          "internalType": "bool",
          "name": "",
          "type": "bool"
        }
      ],
      "stateMutability": "view",
      "type": "function"
    },
    {
      "inputs": [],
      "name": "symbol",
      "outputs": [
        {
          "internalType": "string",
          "name": "",
          "type": "string"
        }
      ],
      "stateMutability": "view",
      "type": "function"
    },
    {
      "inputs": [
        {
          "internalType": "uint256",
          "name": "index",
          "type": "uint256"
        }
      ],
      "name": "tokenByIndex",
      "outputs": [
        {
          "internalType": "uint256",
          "name": "",
          "type": "uint256"
        }
      ],
      "stateMutability": "view",
      "type": "function"
    },
    {
      "inputs": [
        {
          "internalType": "address",
          "name": "owner",
          "type": "address"
        },
        {
          "internalType": "uint256",
          "name": "index",
          "type": "uint256"
        }
      ],
      "name": "tokenOfOwnerByIndex",
      "outputs": [
        {
          "internalType": "uint256",
          "name": "",
          "type": "uint256"
        }
      ],
      "stateMutability": "view",
      "type": "function"
    },
    {
      "inputs": [
        {
          "internalType": "uint256",
          "name": "tokenId",
          "type": "uint256"
        }
      ],
      "name": "tokenURI",
      "outputs": [
        {
          "internalType": "string",
          "name": "",
          "type": "string"
        }
      ],
      "stateMutability": "view",
      "type": "function"
    },
    {
      "inputs": [],
      "name": "totalSupply",
      "outputs": [
        {
          "internalType": "uint256",
          "name": "",
          "type": "uint256"
        }
      ],
      "stateMutability": "view",
      "type": "function"
    },
    {
      "inputs": [
        {
          "internalType": "address",
          "name": "from",
          "type": "address"
        },
        {
          "internalType": "address",
          "name": "to",
          "type": "address"
        },
        {
          "internalType": "uint256",
          "name": "tokenId",
          "type": "uint256"
        }
      ],
      "name": "transferFrom",
      "outputs": [],
      "stateMutability": "nonpayable",
      "type": "function"
    },
    {
      "inputs": [
        {
          "internalType": "address",
          "name": "newOwner",
          "type": "address"
        }
      ],
      "name": "transferOwnership",
      "outputs": [],
      "stateMutability": "nonpayable",
      "type": "function"
    }
  ],
  "bytecode": "0x60806040523480156200001157600080fd5b506040518060400160405280600d81526020017f447265574d617274546f6b656e000000000000000000000000000000000000008152506040518060400160405280600481526020017f444d544b0000000000000000000000000000000000000000000000000000000081525081600090816200008f919062000412565b508060019081620000a1919062000412565b505050620000c4620000b8620000ca60201b60201c565b620000d260201b60201c565b620004f9565b600033905090565b6000600a60009054906101000a900473ffffffffffffffffffffffffffffffffffffffff16905081600a60006101000a81548173ffffffffffffffffffffffffffffffffffffffff021916908373ffffffffffffffffffffffffffffffffffffffff1602179055508173ffffffffffffffffffffffffffffffffffffffff168173ffffffffffffffffffffffffffffffffffffffff167f8be0079c531659141344cd1fd0a4f28419497f9722a3daafe3b4186f6b6457e060405160405180910390a35050565b600081519050919050565b7f4e487b7100000000000000000000000000000000000000000000000000000000600052604160045260246000fd5b7f4e487b7100000000000000000000000000000000000000000000000000000000600052602260045260246000fd5b600060028204905060018216806200021a57607f821691505b60208210810362000230576200022f620001d2565b5b50919050565b60008190508160005260206000209050919050565b60006020601f8301049050919050565b600082821b905092915050565b6000600883026200029a7fffffffffffffffffffffffffffffffffffffffffffffffffffffffffffffffff826200025b565b620002a686836200025b565b95508019841693508086168417925050509392505050565b6000819050919050565b6000819050919050565b6000620002f3620002ed620002e784620002be565b620002c8565b620002be565b9050919050565b6000819050919050565b6200030f83620002d2565b620003276200031e82620002fa565b84845462000268565b825550505050565b600090565b6200033e6200032f565b6200034b81848462000304565b505050565b5b8181101562000373576200036760008262000334565b60018101905062000351565b5050565b601f821115620003c2576200038c8162000236565b62000397846200024b565b81016020851015620003a7578190505b620003bf620003b6856200024b565b83018262000350565b50505b505050565b600082821c905092915050565b6000620003e760001984600802620003c7565b1980831691505092915050565b6000620004028383620003d4565b9150826002028217905092915050565b6200041d8262000198565b67ffffffffffffffff811115620004395762000438620001a3565b5b62000445825462000201565b6200045282828562000377565b600060209050601f8311600181146200048a576000841562000475578287015190505b620004818582620003f4565b865550620004f1565b601f1984166200049a8662000236565b60005b82811015620004c4578489015182556001820191506020850194506020810190506200049d565b86831015620004e45784890151620004e0601f891682620003d4565b8355505b6001600288020188555050505b505050505050565b61362580620005096000396000f3fe608060405234801561001057600080fd5b50600436106101585760003560e01c806370a08231116100c3578063b88d4fde1161007c578063b88d4fde146103c3578063c17e2aa1146103df578063c87b56dd146103e9578063e71dc0e414610419578063e985e9c51461044c578063f2fde38b1461047c57610158565b806370a0823114610315578063715018a6146103455780638da5cb5b1461034f5780639217680a1461036d57806395d89b4114610389578063a22cb465146103a757610158565b806323b872dd1161011557806323b872dd146102315780632f745c591461024d57806342842e0e1461027d57806342966c68146102995780634f6ccce7146102b55780636352211e146102e557610158565b806301ffc9a71461015d57806306fdde031461018d578063081812fc146101ab578063095ea7b3146101db57806318160ddd146101f757806318b8275a14610215575b600080fd5b6101776004803603810190610172919061229c565b610498565b60405161018491906122e4565b60405180910390f35b6101956104aa565b6040516101a2919061238f565b60405180910390f35b6101c560048036038101906101c091906123e7565b61053c565b6040516101d29190612455565b60405180910390f35b6101f560048036038101906101f0919061249c565b610582565b005b6101ff6105bd565b60405161020c91906124eb565b60405180910390f35b61022f600480360381019061022a919061263b565b6105ca565b005b61024b60048036038101906102469190612684565b6106a6565b005b6102676004803603810190610262919061249c565b6106e1565b60405161027491906124eb565b60405180910390f35b61029760048036038101906102929190612684565b610786565b005b6102b360048036038101906102ae91906123e7565b6107c1565b005b6102cf60048036038101906102ca91906123e7565b61087b565b6040516102dc91906124eb565b60405180910390f35b6102ff60048036038101906102fa91906123e7565b6108ec565b60405161030c9190612455565b60405180910390f35b61032f600480360381019061032a91906126d7565b61099d565b60405161033c91906124eb565b60405180910390f35b61034d610a54565b005b610357610a97565b6040516103649190612455565b60405180910390f35b61038760048036038101906103829190612704565b610ac1565b005b610391610b6f565b60405161039e919061238f565b60405180910390f35b6103c160048036038101906103bc91906127cf565b610c01565b005b6103dd60048036038101906103d891906128b0565b610c3c565b005b6103e7610c77565b005b61040360048036038101906103fe91906123e7565b610cc6565b604051610410919061238f565b60405180910390f35b610433600480360381019061042e91906123e7565b610d2e565b6040516104439493929190612933565b60405180910390f35b61046660048036038101906104619190612986565b610e6e565b60405161047391906122e4565b60405180910390f35b610496600480360381019061049191906126d7565b610f02565b005b60006104a382610f85565b9050919050565b6060600080546104b9906129f5565b80601f01602080910402602001604051908101604052809291908181526020018280546104e5906129f5565b80156105325780601f1061050757610100808354040283529160200191610532565b820191906000526020600020905b81548152906001019060200180831161051557829003601f168201915b5050505050905090565b600061054782610fff565b6004600083815260200190815260200160002060009054906101000a900473ffffffffffffffffffffffffffffffffffffffff169050919050565b6040517f08c379a00000000000000000000000000000000000000000000000000000000081526004016105b490612a72565b60405180910390fd5b6000600880549050905090565b6105d33361104a565b600060405180604001604052808381526020013373ffffffffffffffffffffffffffffffffffffffff16815250905080600c60003373ffffffffffffffffffffffffffffffffffffffff1673ffffffffffffffffffffffffffffffffffffffff16815260200190815260200160002060008201518160000190816106579190612c3e565b5060208201518160010160006101000a81548173ffffffffffffffffffffffffffffffffffffffff021916908373ffffffffffffffffffffffffffffffffffffffff1602179055509050505050565b6040517f08c379a00000000000000000000000000000000000000000000000000000000081526004016106d890612a72565b60405180910390fd5b60006106ec8361099d565b821061072d576040517f08c379a000000000000000000000000000000000000000000000000000000000815260040161072490612d82565b60405180910390fd5b600660008473ffffffffffffffffffffffffffffffffffffffff1673ffffffffffffffffffffffffffffffffffffffff168152602001908152602001600020600083815260200190815260200160002054905092915050565b6040517f08c379a00000000000000000000000000000000000000000000000000000000081526004016107b890612a72565b60405180910390fd5b6107cb338261111e565b61080a576040517f08c379a000000000000000000000000000000000000000000000000000000000815260040161080190612dee565b60405180910390fd5b42600d600083815260200190815260200160002060030154101561087857600d60008281526020019081526020016000206000808201600061084c91906121d3565b60018201600061085c91906121d3565b600282016000905560038201600090555050610877816111b3565b5b50565b60006108856105bd565b82106108c6576040517f08c379a00000000000000000000000000000000000000000000000000000000081526004016108bd90612e80565b60405180910390fd5b600882815481106108da576108d9612ea0565b5b90600052602060002001549050919050565b6000806002600084815260200190815260200160002060009054906101000a900473ffffffffffffffffffffffffffffffffffffffff169050600073ffffffffffffffffffffffffffffffffffffffff168173ffffffffffffffffffffffffffffffffffffffff1603610994576040517f08c379a000000000000000000000000000000000000000000000000000000000815260040161098b90612f1b565b60405180910390fd5b80915050919050565b60008073ffffffffffffffffffffffffffffffffffffffff168273ffffffffffffffffffffffffffffffffffffffff1603610a0d576040517f08c379a0000000000000000000000000000000000000000000000000000000008152600401610a0490612fad565b60405180910390fd5b600360008373ffffffffffffffffffffffffffffffffffffffff1673ffffffffffffffffffffffffffffffffffffffff168152602001908152602001600020549050919050565b610a5c6112d0565b6040517f08c379a0000000000000000000000000000000000000000000000000000000008152600401610a8e90612a72565b60405180910390fd5b6000600a60009054906101000a900473ffffffffffffffffffffffffffffffffffffffff16905090565b610ac961134e565b6000610ad5600b611421565b9050610ae1600b61142f565b6000604051806080016040528087815260200186815260200185815260200184815250905080600d60008481526020019081526020016000206000820151816000019081610b2f9190612c3e565b506020820151816001019081610b459190612c3e565b506040820151816002015560608201518160030155905050610b673383611445565b505050505050565b606060018054610b7e906129f5565b80601f0160208091040260200160405190810160405280929190818152602001828054610baa906129f5565b8015610bf75780601f10610bcc57610100808354040283529160200191610bf7565b820191906000526020600020905b815481529060010190602001808311610bda57829003601f168201915b5050505050905090565b6040517f08c379a0000000000000000000000000000000000000000000000000000000008152600401610c3390612a72565b60405180910390fd5b6040517f08c379a0000000000000000000000000000000000000000000000000000000008152600401610c6e90612a72565b60405180910390fd5b610c7f61134e565b6000610c8a3361099d565b905060005b81811015610cc2576000610ca333836106e1565b9050610cae816107c1565b508080610cba90612ffc565b915050610c8f565b5050565b6060610cd182610fff565b6000610cdb611463565b90506000815111610cfb5760405180602001604052806000815250610d26565b80610d058461147a565b604051602001610d16929190613080565b6040516020818303038152906040525b915050919050565b600d602052806000526040600020600091509050806000018054610d51906129f5565b80601f0160208091040260200160405190810160405280929190818152602001828054610d7d906129f5565b8015610dca5780601f10610d9f57610100808354040283529160200191610dca565b820191906000526020600020905b815481529060010190602001808311610dad57829003601f168201915b505050505090806001018054610ddf906129f5565b80601f0160208091040260200160405190810160405280929190818152602001828054610e0b906129f5565b8015610e585780601f10610e2d57610100808354040283529160200191610e58565b820191906000526020600020905b815481529060010190602001808311610e3b57829003601f168201915b5050505050908060020154908060030154905084565b6000600560008473ffffffffffffffffffffffffffffffffffffffff1673ffffffffffffffffffffffffffffffffffffffff16815260200190815260200160002060008373ffffffffffffffffffffffffffffffffffffffff1673ffffffffffffffffffffffffffffffffffffffff16815260200190815260200160002060009054906101000a900460ff16905092915050565b610f0a6112d0565b600073ffffffffffffffffffffffffffffffffffffffff168173ffffffffffffffffffffffffffffffffffffffff1603610f79576040517f08c379a0000000000000000000000000000000000000000000000000000000008152600401610f7090613116565b60405180910390fd5b610f82816115da565b50565b60007f780e9d63000000000000000000000000000000000000000000000000000000007bffffffffffffffffffffffffffffffffffffffffffffffffffffffff1916827bffffffffffffffffffffffffffffffffffffffffffffffffffffffff19161480610ff85750610ff7826116a0565b5b9050919050565b61100881611782565b611047576040517f08c379a000000000000000000000000000000000000000000000000000000000815260040161103e90612f1b565b60405180910390fd5b50565b600073ffffffffffffffffffffffffffffffffffffffff16600c60008373ffffffffffffffffffffffffffffffffffffffff1673ffffffffffffffffffffffffffffffffffffffff16815260200190815260200160002060010160009054906101000a900473ffffffffffffffffffffffffffffffffffffffff1673ffffffffffffffffffffffffffffffffffffffff161461111b576040517f08c379a000000000000000000000000000000000000000000000000000000000815260040161111290613182565b60405180910390fd5b50565b60008061112a836108ec565b90508073ffffffffffffffffffffffffffffffffffffffff168473ffffffffffffffffffffffffffffffffffffffff16148061116c575061116b8185610e6e565b5b806111aa57508373ffffffffffffffffffffffffffffffffffffffff166111928461053c565b73ffffffffffffffffffffffffffffffffffffffff16145b91505092915050565b60006111be826108ec565b90506111cc816000846117ee565b6111d76000836118a8565b6001600360008373ffffffffffffffffffffffffffffffffffffffff1673ffffffffffffffffffffffffffffffffffffffff168152602001908152602001600020600082825461122791906131a2565b925050819055506002600083815260200190815260200160002060006101000a81549073ffffffffffffffffffffffffffffffffffffffff021916905581600073ffffffffffffffffffffffffffffffffffffffff168273ffffffffffffffffffffffffffffffffffffffff167fddf252ad1be2c89b69c2b068fc378daa952ba7f163c4a11628f55a4df523b3ef60405160405180910390a46112cc81600084611961565b5050565b6112d8611966565b73ffffffffffffffffffffffffffffffffffffffff166112f6610a97565b73ffffffffffffffffffffffffffffffffffffffff161461134c576040517f08c379a000000000000000000000000000000000000000000000000000000000815260040161134390613222565b60405180910390fd5b565b600073ffffffffffffffffffffffffffffffffffffffff16600c60003373ffffffffffffffffffffffffffffffffffffffff1673ffffffffffffffffffffffffffffffffffffffff16815260200190815260200160002060010160009054906101000a900473ffffffffffffffffffffffffffffffffffffffff1673ffffffffffffffffffffffffffffffffffffffff160361141f576040517f08c379a00000000000000000000000000000000000000000000000000000000081526004016114169061328e565b60405180910390fd5b565b600081600001549050919050565b6001816000016000828254019250508190555050565b61145f82826040518060200160405280600081525061196e565b5050565b606060405180602001604052806000815250905090565b6060600082036114c1576040518060400160405280600181526020017f300000000000000000000000000000000000000000000000000000000000000081525090506115d5565b600082905060005b600082146114f35780806114dc90612ffc565b915050600a826114ec91906132dd565b91506114c9565b60008167ffffffffffffffff81111561150f5761150e612510565b5b6040519080825280601f01601f1916602001820160405280156115415781602001600182028036833780820191505090505b5090505b600085146115ce5760018261155a91906131a2565b9150600a85611569919061330e565b6030611575919061333f565b60f81b81838151811061158b5761158a612ea0565b5b60200101907effffffffffffffffffffffffffffffffffffffffffffffffffffffffffffff1916908160001a905350600a856115c791906132dd565b9450611545565b8093505050505b919050565b6000600a60009054906101000a900473ffffffffffffffffffffffffffffffffffffffff16905081600a60006101000a81548173ffffffffffffffffffffffffffffffffffffffff021916908373ffffffffffffffffffffffffffffffffffffffff1602179055508173ffffffffffffffffffffffffffffffffffffffff168173ffffffffffffffffffffffffffffffffffffffff167f8be0079c531659141344cd1fd0a4f28419497f9722a3daafe3b4186f6b6457e060405160405180910390a35050565b60007f80ac58cd000000000000000000000000000000000000000000000000000000007bffffffffffffffffffffffffffffffffffffffffffffffffffffffff1916827bffffffffffffffffffffffffffffffffffffffffffffffffffffffff1916148061176b57507f5b5e139f000000000000000000000000000000000000000000000000000000007bffffffffffffffffffffffffffffffffffffffffffffffffffffffff1916827bffffffffffffffffffffffffffffffffffffffffffffffffffffffff1916145b8061177b575061177a826119c9565b5b9050919050565b60008073ffffffffffffffffffffffffffffffffffffffff166002600084815260200190815260200160002060009054906101000a900473ffffffffffffffffffffffffffffffffffffffff1673ffffffffffffffffffffffffffffffffffffffff1614159050919050565b600073ffffffffffffffffffffffffffffffffffffffff168373ffffffffffffffffffffffffffffffffffffffff16141580156118585750600073ffffffffffffffffffffffffffffffffffffffff168273ffffffffffffffffffffffffffffffffffffffff1614155b15611898576040517f08c379a000000000000000000000000000000000000000000000000000000000815260040161188f90612a72565b60405180910390fd5b6118a3838383611a33565b505050565b816004600083815260200190815260200160002060006101000a81548173ffffffffffffffffffffffffffffffffffffffff021916908373ffffffffffffffffffffffffffffffffffffffff160217905550808273ffffffffffffffffffffffffffffffffffffffff1661191b836108ec565b73ffffffffffffffffffffffffffffffffffffffff167f8c5be1e5ebec7d5bd14f71427d1e84f3dd0314c0f7b2291e5b200ac8c7c3b92560405160405180910390a45050565b505050565b600033905090565b6119788383611b45565b6119856000848484611d1e565b6119c4576040517f08c379a00000000000000000000000000000000000000000000000000000000081526004016119bb906133e5565b60405180910390fd5b505050565b60007f01ffc9a7000000000000000000000000000000000000000000000000000000007bffffffffffffffffffffffffffffffffffffffffffffffffffffffff1916827bffffffffffffffffffffffffffffffffffffffffffffffffffffffff1916149050919050565b611a3e838383611ea5565b600073ffffffffffffffffffffffffffffffffffffffff168373ffffffffffffffffffffffffffffffffffffffff1603611a8057611a7b81611eaa565b611abf565b8173ffffffffffffffffffffffffffffffffffffffff168373ffffffffffffffffffffffffffffffffffffffff1614611abe57611abd8382611ef3565b5b5b600073ffffffffffffffffffffffffffffffffffffffff168273ffffffffffffffffffffffffffffffffffffffff1603611b0157611afc81612060565b611b40565b8273ffffffffffffffffffffffffffffffffffffffff168273ffffffffffffffffffffffffffffffffffffffff1614611b3f57611b3e8282612131565b5b5b505050565b600073ffffffffffffffffffffffffffffffffffffffff168273ffffffffffffffffffffffffffffffffffffffff1603611bb4576040517f08c379a0000000000000000000000000000000000000000000000000000000008152600401611bab90613451565b60405180910390fd5b611bbd81611782565b15611bfd576040517f08c379a0000000000000000000000000000000000000000000000000000000008152600401611bf4906134bd565b60405180910390fd5b611c09600083836117ee565b6001600360008473ffffffffffffffffffffffffffffffffffffffff1673ffffffffffffffffffffffffffffffffffffffff1681526020019081526020016000206000828254611c59919061333f565b92505081905550816002600083815260200190815260200160002060006101000a81548173ffffffffffffffffffffffffffffffffffffffff021916908373ffffffffffffffffffffffffffffffffffffffff160217905550808273ffffffffffffffffffffffffffffffffffffffff16600073ffffffffffffffffffffffffffffffffffffffff167fddf252ad1be2c89b69c2b068fc378daa952ba7f163c4a11628f55a4df523b3ef60405160405180910390a4611d1a60008383611961565b5050565b6000611d3f8473ffffffffffffffffffffffffffffffffffffffff166121b0565b15611e98578373ffffffffffffffffffffffffffffffffffffffff1663150b7a02611d68611966565b8786866040518563ffffffff1660e01b8152600401611d8a9493929190613532565b6020604051808303816000875af1925050508015611dc657506040513d601f19601f82011682018060405250810190611dc39190613593565b60015b611e48573d8060008114611df6576040519150601f19603f3d011682016040523d82523d6000602084013e611dfb565b606091505b506000815103611e40576040517f08c379a0000000000000000000000000000000000000000000000000000000008152600401611e37906133e5565b60405180910390fd5b805181602001fd5b63150b7a0260e01b7bffffffffffffffffffffffffffffffffffffffffffffffffffffffff1916817bffffffffffffffffffffffffffffffffffffffffffffffffffffffff191614915050611e9d565b600190505b949350505050565b505050565b6008805490506009600083815260200190815260200160002081905550600881908060018154018082558091505060019003906000526020600020016000909190919091505550565b60006001611f008461099d565b611f0a91906131a2565b9050600060076000848152602001908152602001600020549050818114611fef576000600660008673ffffffffffffffffffffffffffffffffffffffff1673ffffffffffffffffffffffffffffffffffffffff168152602001908152602001600020600084815260200190815260200160002054905080600660008773ffffffffffffffffffffffffffffffffffffffff1673ffffffffffffffffffffffffffffffffffffffff168152602001908152602001600020600084815260200190815260200160002081905550816007600083815260200190815260200160002081905550505b6007600084815260200190815260200160002060009055600660008573ffffffffffffffffffffffffffffffffffffffff1673ffffffffffffffffffffffffffffffffffffffff16815260200190815260200160002060008381526020019081526020016000206000905550505050565b6000600160088054905061207491906131a2565b90506000600960008481526020019081526020016000205490506000600883815481106120a4576120a3612ea0565b5b9060005260206000200154905080600883815481106120c6576120c5612ea0565b5b906000526020600020018190555081600960008381526020019081526020016000208190555060096000858152602001908152602001600020600090556008805480612115576121146135c0565b5b6001900381819060005260206000200160009055905550505050565b600061213c8361099d565b905081600660008573ffffffffffffffffffffffffffffffffffffffff1673ffffffffffffffffffffffffffffffffffffffff168152602001908152602001600020600083815260200190815260200160002081905550806007600084815260200190815260200160002081905550505050565b6000808273ffffffffffffffffffffffffffffffffffffffff163b119050919050565b5080546121df906129f5565b6000825580601f106121f15750612210565b601f01602090049060005260206000209081019061220f9190612213565b5b50565b5b8082111561222c576000816000905550600101612214565b5090565b6000604051905090565b600080fd5b600080fd5b60007fffffffff0000000000000000000000000000000000000000000000000000000082169050919050565b61227981612244565b811461228457600080fd5b50565b60008135905061229681612270565b92915050565b6000602082840312156122b2576122b161223a565b5b60006122c084828501612287565b91505092915050565b60008115159050919050565b6122de816122c9565b82525050565b60006020820190506122f960008301846122d5565b92915050565b600081519050919050565b600082825260208201905092915050565b60005b8381101561233957808201518184015260208101905061231e565b60008484015250505050565b6000601f19601f8301169050919050565b6000612361826122ff565b61236b818561230a565b935061237b81856020860161231b565b61238481612345565b840191505092915050565b600060208201905081810360008301526123a98184612356565b905092915050565b6000819050919050565b6123c4816123b1565b81146123cf57600080fd5b50565b6000813590506123e1816123bb565b92915050565b6000602082840312156123fd576123fc61223a565b5b600061240b848285016123d2565b91505092915050565b600073ffffffffffffffffffffffffffffffffffffffff82169050919050565b600061243f82612414565b9050919050565b61244f81612434565b82525050565b600060208201905061246a6000830184612446565b92915050565b61247981612434565b811461248457600080fd5b50565b60008135905061249681612470565b92915050565b600080604083850312156124b3576124b261223a565b5b60006124c185828601612487565b92505060206124d2858286016123d2565b9150509250929050565b6124e5816123b1565b82525050565b600060208201905061250060008301846124dc565b92915050565b600080fd5b600080fd5b7f4e487b7100000000000000000000000000000000000000000000000000000000600052604160045260246000fd5b61254882612345565b810181811067ffffffffffffffff8211171561256757612566612510565b5b80604052505050565b600061257a612230565b9050612586828261253f565b919050565b600067ffffffffffffffff8211156125a6576125a5612510565b5b6125af82612345565b9050602081019050919050565b82818337600083830152505050565b60006125de6125d98461258b565b612570565b9050828152602081018484840111156125fa576125f961250b565b5b6126058482856125bc565b509392505050565b600082601f83011261262257612621612506565b5b81356126328482602086016125cb565b91505092915050565b6000602082840312156126515761265061223a565b5b600082013567ffffffffffffffff81111561266f5761266e61223f565b5b61267b8482850161260d565b91505092915050565b60008060006060848603121561269d5761269c61223a565b5b60006126ab86828701612487565b93505060206126bc86828701612487565b92505060406126cd868287016123d2565b9150509250925092565b6000602082840312156126ed576126ec61223a565b5b60006126fb84828501612487565b91505092915050565b6000806000806080858703121561271e5761271d61223a565b5b600085013567ffffffffffffffff81111561273c5761273b61223f565b5b6127488782880161260d565b945050602085013567ffffffffffffffff8111156127695761276861223f565b5b6127758782880161260d565b9350506040612786878288016123d2565b9250506060612797878288016123d2565b91505092959194509250565b6127ac816122c9565b81146127b757600080fd5b50565b6000813590506127c9816127a3565b92915050565b600080604083850312156127e6576127e561223a565b5b60006127f485828601612487565b9250506020612805858286016127ba565b9150509250929050565b600067ffffffffffffffff82111561282a57612829612510565b5b61283382612345565b9050602081019050919050565b600061285361284e8461280f565b612570565b90508281526020810184848401111561286f5761286e61250b565b5b61287a8482856125bc565b509392505050565b600082601f83011261289757612896612506565b5b81356128a7848260208601612840565b91505092915050565b600080600080608085870312156128ca576128c961223a565b5b60006128d887828801612487565b94505060206128e987828801612487565b93505060406128fa878288016123d2565b925050606085013567ffffffffffffffff81111561291b5761291a61223f565b5b61292787828801612882565b91505092959194509250565b6000608082019050818103600083015261294d8187612356565b905081810360208301526129618186612356565b905061297060408301856124dc565b61297d60608301846124dc565b95945050505050565b6000806040838503121561299d5761299c61223a565b5b60006129ab85828601612487565b92505060206129bc85828601612487565b9150509250929050565b7f4e487b7100000000000000000000000000000000000000000000000000000000600052602260045260246000fd5b60006002820490506001821680612a0d57607f821691505b602082108103612a2057612a1f6129c6565b5b50919050565b7f4163636573732044656e69656420210000000000000000000000000000000000600082015250565b6000612a5c600f8361230a565b9150612a6782612a26565b602082019050919050565b60006020820190508181036000830152612a8b81612a4f565b9050919050565b60008190508160005260206000209050919050565b60006020601f8301049050919050565b600082821b905092915050565b600060088302612af47fffffffffffffffffffffffffffffffffffffffffffffffffffffffffffffffff82612ab7565b612afe8683612ab7565b95508019841693508086168417925050509392505050565b6000819050919050565b6000612b3b612b36612b31846123b1565b612b16565b6123b1565b9050919050565b6000819050919050565b612b5583612b20565b612b69612b6182612b42565b848454612ac4565b825550505050565b600090565b612b7e612b71565b612b89818484612b4c565b505050565b5b81811015612bad57612ba2600082612b76565b600181019050612b8f565b5050565b601f821115612bf257612bc381612a92565b612bcc84612aa7565b81016020851015612bdb578190505b612bef612be785612aa7565b830182612b8e565b50505b505050565b600082821c905092915050565b6000612c1560001984600802612bf7565b1980831691505092915050565b6000612c2e8383612c04565b9150826002028217905092915050565b612c47826122ff565b67ffffffffffffffff811115612c6057612c5f612510565b5b612c6a82546129f5565b612c75828285612bb1565b600060209050601f831160018114612ca85760008415612c96578287015190505b612ca08582612c22565b865550612d08565b601f198416612cb686612a92565b60005b82811015612cde57848901518255600182019150602085019450602081019050612cb9565b86831015612cfb5784890151612cf7601f891682612c04565b8355505b6001600288020188555050505b505050505050565b7f455243373231456e756d657261626c653a206f776e657220696e646578206f7560008201527f74206f6620626f756e6473000000000000000000000000000000000000000000602082015250565b6000612d6c602b8361230a565b9150612d7782612d10565b604082019050919050565b60006020820190508181036000830152612d9b81612d5f565b9050919050565b7f43616c6c6572206973206e6f74204f776e657200000000000000000000000000600082015250565b6000612dd860138361230a565b9150612de382612da2565b602082019050919050565b60006020820190508181036000830152612e0781612dcb565b9050919050565b7f455243373231456e756d657261626c653a20676c6f62616c20696e646578206f60008201527f7574206f6620626f756e64730000000000000000000000000000000000000000602082015250565b6000612e6a602c8361230a565b9150612e7582612e0e565b604082019050919050565b60006020820190508181036000830152612e9981612e5d565b9050919050565b7f4e487b7100000000000000000000000000000000000000000000000000000000600052603260045260246000fd5b7f4552433732313a20696e76616c696420746f6b656e2049440000000000000000600082015250565b6000612f0560188361230a565b9150612f1082612ecf565b602082019050919050565b60006020820190508181036000830152612f3481612ef8565b9050919050565b7f4552433732313a2061646472657373207a65726f206973206e6f74206120766160008201527f6c6964206f776e65720000000000000000000000000000000000000000000000602082015250565b6000612f9760298361230a565b9150612fa282612f3b565b604082019050919050565b60006020820190508181036000830152612fc681612f8a565b9050919050565b7f4e487b7100000000000000000000000000000000000000000000000000000000600052601160045260246000fd5b6000613007826123b1565b91507fffffffffffffffffffffffffffffffffffffffffffffffffffffffffffffffff820361303957613038612fcd565b5b600182019050919050565b600081905092915050565b600061305a826122ff565b6130648185613044565b935061307481856020860161231b565b80840191505092915050565b600061308c828561304f565b9150613098828461304f565b91508190509392505050565b7f4f776e61626c653a206e6577206f776e657220697320746865207a65726f206160008201527f6464726573730000000000000000000000000000000000000000000000000000602082015250565b600061310060268361230a565b915061310b826130a4565b604082019050919050565b6000602082019050818103600083015261312f816130f3565b9050919050565b7f416c726561647920526567697374657265640000000000000000000000000000600082015250565b600061316c60128361230a565b915061317782613136565b602082019050919050565b6000602082019050818103600083015261319b8161315f565b9050919050565b60006131ad826123b1565b91506131b8836123b1565b92508282039050818111156131d0576131cf612fcd565b5b92915050565b7f4f776e61626c653a2063616c6c6572206973206e6f7420746865206f776e6572600082015250565b600061320c60208361230a565b9150613217826131d6565b602082019050919050565b6000602082019050818103600083015261323b816131ff565b9050919050565b7f4163636573732044656e69656400000000000000000000000000000000000000600082015250565b6000613278600d8361230a565b915061328382613242565b602082019050919050565b600060208201905081810360008301526132a78161326b565b9050919050565b7f4e487b7100000000000000000000000000000000000000000000000000000000600052601260045260246000fd5b60006132e8826123b1565b91506132f3836123b1565b925082613303576133026132ae565b5b828204905092915050565b6000613319826123b1565b9150613324836123b1565b925082613334576133336132ae565b5b828206905092915050565b600061334a826123b1565b9150613355836123b1565b925082820190508082111561336d5761336c612fcd565b5b92915050565b7f4552433732313a207472616e7366657220746f206e6f6e20455243373231526560008201527f63656976657220696d706c656d656e7465720000000000000000000000000000602082015250565b60006133cf60328361230a565b91506133da82613373565b604082019050919050565b600060208201905081810360008301526133fe816133c2565b9050919050565b7f4552433732313a206d696e7420746f20746865207a65726f2061646472657373600082015250565b600061343b60208361230a565b915061344682613405565b602082019050919050565b6000602082019050818103600083015261346a8161342e565b9050919050565b7f4552433732313a20746f6b656e20616c7265616479206d696e74656400000000600082015250565b60006134a7601c8361230a565b91506134b282613471565b602082019050919050565b600060208201905081810360008301526134d68161349a565b9050919050565b600081519050919050565b600082825260208201905092915050565b6000613504826134dd565b61350e81856134e8565b935061351e81856020860161231b565b61352781612345565b840191505092915050565b60006080820190506135476000830187612446565b6135546020830186612446565b61356160408301856124dc565b818103606083015261357381846134f9565b905095945050505050565b60008151905061358d81612270565b92915050565b6000602082840312156135a9576135a861223a565b5b60006135b78482850161357e565b91505092915050565b7f4e487b7100000000000000000000000000000000000000000000000000000000600052603160045260246000fdfea26469706673582212209f1127ac08e2fb620b5104da4cc40f66486affba43cffdfb1280e1c3c6f57f6664736f6c63430008100033",
  "linkReferences": {},
  "deployedLinkReferences": {}
}